{"abi":[{"type":"constructor","inputs":[{"name":"_usdc","type":"address","internalType":"address"},{"name":"_treasury","type":"address","internalType":"address"}],"stateMutability":"nonpayable"},{"type":"function","name":"CLAIM_TIMEOUT","inputs":[],"outputs":[{"name":"","type":"uint256","internalType":"uint256"}],"stateMutability":"view"},{"type":"function","name":"CREATION_FEE","inputs":[],"outputs":[{"name":"","type":"uint256","internalType":"uint256"}],"stateMutability":"view"},{"type":"function","name":"MIN_BOUNTY","inputs":[],"outputs":[{"name":"","type":"uint256","internalType":"uint256"}],"stateMutability":"view"},{"type":"function","name":"MIN_STAKE_AMOUNT","inputs":[],"outputs":[{"name":"","type":"uint256","internalType":"uint256"}],"stateMutability":"view"},{"type":"function","name":"PLATFORM_FEE_BPS","inputs":[],"outputs":[{"name":"","type":"uint256","internalType":"uint256"}],"stateMutability":"view"},{"type":"function","name":"REFERRAL_SHARE_BPS","inputs":[],"outputs":[{"name":"","type":"uint256","internalType":"uint256"}],"stateMutability":"view"},{"type":"function","name":"USDC","inputs":[],"outputs":[{"name":"","type":"address","internalType":"address"}],"stateMutability":"view"},{"type":"function","name":"accumulatedFees","inputs":[],"outputs":[{"name":"","type":"uint256","internalType":"uint256"}],"stateMutability":"view"},{"type":"function","name":"approve","inputs":[{"name":"to","type":"address","internalType":"address"},{"name":"tokenId","type":"uint256","internalType":"uint256"}],"outputs":[],"stateMutability":"nonpayable"},{"type":"function","name":"approveCompletion","inputs":[{"name":"questId","type":"uint256","internalType":"uint256"}],"outputs":[],"stateMutability":"nonpayable"},{"type":"function","name":"balanceOf","inputs":[{"name":"owner","type":"address","internalType":"address"}],"outputs":[{"name":"","type":"uint256","internalType":"uint256"}],"stateMutability":"view"},{"type":"function","name":"cancelQuest","inputs":[{"name":"questId","type":"uint256","internalType":"uint256"}],"outputs":[],"stateMutability":"nonpayable"},{"type":"function","name":"claimQuest","inputs":[{"name":"questId","type":"uint256","internalType":"uint256"}],"outputs":[],"stateMutability":"nonpayable"},{"type":"function","name":"claimQuestWithReferral","inputs":[{"name":"questId","type":"uint256","internalType":"uint256"},{"name":"referrer","type":"address","internalType":"address"}],"outputs":[],"stateMutability":"nonpayable"},{"type":"function","name":"createQuest","inputs":[{"name":"title","type":"string","internalType":"string"},{"name":"description","type":"string","internalType":"string"},{"name":"bountyAmount","type":"uint256","internalType":"uint256"},{"name":"skillTags","type":"string[]","internalType":"string[]"},{"name":"deadline","type":"uint256","internalType":"uint256"}],"outputs":[{"name":"questId","type":"uint256","internalType":"uint256"}],"stateMutability":"nonpayable"},{"type":"function","name":"getApproved","inputs":[{"name":"tokenId","type":"uint256","internalType":"uint256"}],"outputs":[{"name":"","type":"address","internalType":"address"}],"stateMutability":"view"},{"type":"function","name":"getOpenQuests","inputs":[],"outputs":[{"name":"","type":"uint256[]","internalType":"uint256[]"}],"stateMutability":"view"},{"type":"function","name":"getQuest","inputs":[{"name":"questId","type":"uint256","internalType":"uint256"}],"outputs":[{"name":"","type":"tuple","internalType":"struct IClawQuests.Quest","components":[{"name":"creator","type":"address","internalType":"address"},{"name":"claimer","type":"address","internalType":"address"},{"name":"title","type":"string","internalType":"string"},{"name":"description","type":"string","internalType":"string"},{"name":"resultURI","type":"string","internalType":"string"},{"name":"bountyAmount","type":"uint256","internalType":"uint256"},{"name":"createdAt","type":"uint256","internalType":"uint256"},{"name":"claimedAt","type":"uint256","internalType":"uint256"},{"name":"deadline","type":"uint256","internalType":"uint256"},{"name":"status","type":"uint8","internalType":"enum IClawQuests.QuestStatus"},{"name":"skillTags","type":"string[]","internalType":"string[]"}]}],"stateMutability":"view"},{"type":"function","name":"getQuestsByClaimer","inputs":[{"name":"claimer","type":"address","internalType":"address"}],"outputs":[{"name":"","type":"uint256[]","internalType":"uint256[]"}],"stateMutability":"view"},{"type":"function","name":"getQuestsByCreator","inputs":[{"name":"creator","type":"address","internalType":"address"}],"outputs":[{"name":"","type":"uint256[]","internalType":"uint256[]"}],"stateMutability":"view"},{"type":"function","name":"isApprovedForAll","inputs":[{"name":"owner","type":"address","internalType":"address"},{"name":"operator","type":"address","internalType":"address"}],"outputs":[{"name":"","type":"bool","internalType":"bool"}],"stateMutability":"view"},{"type":"function","name":"name","inputs":[],"outputs":[{"name":"","type":"string","internalType":"string"}],"stateMutability":"view"},{"type":"function","name":"openQuestCount","inputs":[],"outputs":[{"name":"","type":"uint256","internalType":"uint256"}],"stateMutability":"view"},{"type":"function","name":"owner","inputs":[],"outputs":[{"name":"","type":"address","internalType":"address"}],"stateMutability":"view"},{"type":"function","name":"ownerOf","inputs":[{"name":"tokenId","type":"uint256","internalType":"uint256"}],"outputs":[{"name":"","type":"address","internalType":"address"}],"stateMutability":"view"},{"type":"function","name":"reclaimQuest","inputs":[{"name":"questId","type":"uint256","internalType":"uint256"}],"outputs":[],"stateMutability":"nonpayable"},{"type":"function","name":"referralEarnings","inputs":[{"name":"","type":"address","internalType":"address"}],"outputs":[{"name":"","type":"uint256","internalType":"uint256"}],"stateMutability":"view"},{"type":"function","name":"referrers","inputs":[{"name":"","type":"address","internalType":"address"}],"outputs":[{"name":"","type":"address","internalType":"address"}],"stateMutability":"view"},{"type":"function","name":"rejectCompletion","inputs":[{"name":"questId","type":"uint256","internalType":"uint256"},{"name":"reason","type":"string","internalType":"string"}],"outputs":[],"stateMutability":"nonpayable"},{"type":"function","name":"renounceOwnership","inputs":[],"outputs":[],"stateMutability":"nonpayable"},{"type":"function","name":"safeTransferFrom","inputs":[{"name":"from","type":"address","internalType":"address"},{"name":"to","type":"address","internalType":"address"},{"name":"tokenId","type":"uint256","internalType":"uint256"}],"outputs":[],"stateMutability":"nonpayable"},{"type":"function","name":"safeTransferFrom","inputs":[{"name":"from","type":"address","internalType":"address"},{"name":"to","type":"address","internalType":"address"},{"name":"tokenId","type":"uint256","internalType":"uint256"},{"name":"data","type":"bytes","internalType":"bytes"}],"outputs":[],"stateMutability":"nonpayable"},{"type":"function","name":"setApprovalForAll","inputs":[{"name":"operator","type":"address","internalType":"address"},{"name":"approved","type":"bool","internalType":"bool"}],"outputs":[],"stateMutability":"nonpayable"},{"type":"function","name":"setTreasury","inputs":[{"name":"_treasury","type":"address","internalType":"address"}],"outputs":[],"stateMutability":"nonpayable"},{"type":"function","name":"stake","inputs":[{"name":"amount","type":"uint256","internalType":"uint256"}],"outputs":[],"stateMutability":"nonpayable"},{"type":"function","name":"stakes","inputs":[{"name":"","type":"address","internalType":"address"}],"outputs":[{"name":"","type":"uint256","internalType":"uint256"}],"stateMutability":"view"},{"type":"function","name":"submitResult","inputs":[{"name":"questId","type":"uint256","internalType":"uint256"},{"name":"resultURI","type":"string","internalType":"string"}],"outputs":[],"stateMutability":"nonpayable"},{"type":"function","name":"supportsInterface","inputs":[{"name":"interfaceId","type":"bytes4","internalType":"bytes4"}],"outputs":[{"name":"","type":"bool","internalType":"bool"}],"stateMutability":"view"},{"type":"function","name":"symbol","inputs":[],"outputs":[{"name":"","type":"string","internalType":"string"}],"stateMutability":"view"},{"type":"function","name":"tokenURI","inputs":[{"name":"questId","type":"uint256","internalType":"uint256"}],"outputs":[{"name":"","type":"string","internalType":"string"}],"stateMutability":"view"},{"type":"function","name":"totalQuests","inputs":[],"outputs":[{"name":"","type":"uint256","internalType":"uint256"}],"stateMutability":"view"},{"type":"function","name":"totalRevenue","inputs":[],"outputs":[{"name":"","type":"uint256","internalType":"uint256"}],"stateMutability":"view"},{"type":"function","name":"totalVolume","inputs":[],"outputs":[{"name":"","type":"uint256","internalType":"uint256"}],"stateMutability":"view"},{"type":"function","name":"transferFrom","inputs":[{"name":"from","type":"address","internalType":"address"},{"name":"to","type":"address","internalType":"address"},{"name":"tokenId","type":"uint256","internalType":"uint256"}],"outputs":[],"stateMutability":"nonpayable"},{"type":"function","name":"transferOwnership","inputs":[{"name":"newOwner","type":"address","internalType":"address"}],"outputs":[],"stateMutability":"nonpayable"},{"type":"function","name":"treasury","inputs":[],"outputs":[{"name":"","type":"address","internalType":"address"}],"stateMutability":"view"},{"type":"function","name":"unstake","inputs":[{"name":"amount","type":"uint256","internalType":"uint256"}],"outputs":[],"stateMutability":"nonpayable"},{"type":"function","name":"withdrawFees","inputs":[],"outputs":[],"stateMutability":"nonpayable"},{"type":"event","name":"Approval","inputs":[{"name":"owner","type":"address","indexed":true,"internalType":"address"},{"name":"approved","type":"address","indexed":true,"internalType":"address"},{"name":"tokenId","type":"uint256","indexed":true,"internalType":"uint256"}],"anonymous":false},{"type":"event","name":"ApprovalForAll","inputs":[{"name":"owner","type":"address","indexed":true,"internalType":"address"},{"name":"operator","type":"address","indexed":true,"internalType":"address"},{"name":"approved","type":"bool","indexed":false,"internalType":"bool"}],"anonymous":false},{"type":"event","name":"OwnershipTransferred","inputs":[{"name":"previousOwner","type":"address","indexed":true,"internalType":"address"},{"name":"newOwner","type":"address","indexed":true,"internalType":"address"}],"anonymous":false},{"type":"event","name":"QuestCancelled","inputs":[{"name":"questId","type":"uint256","indexed":true,"internalType":"uint256"}],"anonymous":false},{"type":"event","name":"QuestClaimed","inputs":[{"name":"questId","type":"uint256","indexed":true,"internalType":"uint256"},{"name":"claimer","type":"address","indexed":true,"internalType":"address"},{"name":"referrer","type":"address","indexed":true,"internalType":"address"}],"anonymous":false},{"type":"event","name":"QuestCompleted","inputs":[{"name":"questId","type":"uint256","indexed":true,"internalType":"uint256"},{"name":"claimer","type":"address","indexed":true,"internalType":"address"},{"name":"payout","type":"uint256","indexed":false,"internalType":"uint256"},{"name":"platformFee","type":"uint256","indexed":false,"internalType":"uint256"},{"name":"referralFee","type":"uint256","indexed":false,"internalType":"uint256"}],"anonymous":false},{"type":"event","name":"QuestCreated","inputs":[{"name":"questId","type":"uint256","indexed":true,"internalType":"uint256"},{"name":"creator","type":"address","indexed":true,"internalType":"address"},{"name":"bountyAmount","type":"uint256","indexed":false,"internalType":"uint256"},{"name":"title","type":"string","indexed":false,"internalType":"string"}],"anonymous":false},{"type":"event","name":"QuestReclaimed","inputs":[{"name":"questId","type":"uint256","indexed":true,"internalType":"uint256"},{"name":"previousClaimer","type":"address","indexed":true,"internalType":"address"}],"anonymous":false},{"type":"event","name":"QuestRejected","inputs":[{"name":"questId","type":"uint256","indexed":true,"internalType":"uint256"},{"name":"claimer","type":"address","indexed":true,"internalType":"address"},{"name":"reason","type":"string","indexed":false,"internalType":"string"}],"anonymous":false},{"type":"event","name":"ReferralRegistered","inputs":[{"name":"agent","type":"address","indexed":true,"internalType":"address"},{"name":"referrer","type":"address","indexed":true,"internalType":"address"}],"anonymous":false},{"type":"event","name":"ResultSubmitted","inputs":[{"name":"questId","type":"uint256","indexed":true,"internalType":"uint256"},{"name":"claimer","type":"address","indexed":true,"internalType":"address"},{"name":"resultURI","type":"string","indexed":false,"internalType":"string"}],"anonymous":false},{"type":"event","name":"Staked","inputs":[{"name":"user","type":"address","indexed":true,"internalType":"address"},{"name":"amount","type":"uint256","indexed":false,"internalType":"uint256"}],"anonymous":false},{"type":"event","name":"Transfer","inputs":[{"name":"from","type":"address","indexed":true,"internalType":"address"},{"name":"to","type":"address","indexed":true,"internalType":"address"},{"name":"tokenId","type":"uint256","indexed":true,"internalType":"uint256"}],"anonymous":false},{"type":"event","name":"Unstaked","inputs":[{"name":"user","type":"address","indexed":true,"internalType":"address"},{"name":"amount","type":"uint256","indexed":false,"internalType":"uint256"}],"anonymous":false},{"type":"error","name":"ERC721IncorrectOwner","inputs":[{"name":"sender","type":"address","internalType":"address"},{"name":"tokenId","type":"uint256","internalType":"uint256"},{"name":"owner","type":"address","internalType":"address"}]},{"type":"error","name":"ERC721InsufficientApproval","inputs":[{"name":"operator","type":"address","internalType":"address"},{"name":"tokenId","type":"uint256","internalType":"uint256"}]},{"type":"error","name":"ERC721InvalidApprover","inputs":[{"name":"approver","type":"address","internalType":"address"}]},{"type":"error","name":"ERC721InvalidOperator","inputs":[{"name":"operator","type":"address","internalType":"address"}]},{"type":"error","name":"ERC721InvalidOwner","inputs":[{"name":"owner","type":"address","internalType":"address"}]},{"type":"error","name":"ERC721InvalidReceiver","inputs":[{"name":"receiver","type":"address","internalType":"address"}]},{"type":"error","name":"ERC721InvalidSender","inputs":[{"name":"sender","type":"address","internalType":"address"}]},{"type":"error","name":"ERC721NonexistentToken","inputs":[{"name":"tokenId","type":"uint256","internalType":"uint256"}]},{"type":"error","name":"OwnableInvalidOwner","inputs":[{"name":"owner","type":"address","internalType":"address"}]},{"type":"error","name":"OwnableUnauthorizedAccount","inputs":[{"name":"account","type":"address","internalType":"address"}]},{"type":"error","name":"ReentrancyGuardReentrantCall","inputs":[]},{"type":"error","name":"SafeERC20FailedOperation","inputs":[{"name":"token","type":"address","internalType":"address"}]}],"bytecode":{"object":"0x60a0604052600160075534801562000015575f80fd5b5060405162004ab238038062004ab2833981016040819052620000389162000241565b336040518060400160405280600a815260200169436c617751756573747360b01b8152506040518060400160405280600581526020016414555154d560da1b815250815f90816200008a919062000315565b50600162000099828262000315565b5050506001600160a01b038116620000cb57604051631e4fbdf760e01b81525f60048201526024015b60405180910390fd5b620000d681620001d4565b5060017f9b779b17422d0df92223018b32b4d1fa46e071723d6817e2486d003becc55f00556001600160a01b038216620001535760405162461bcd60e51b815260206004820152601460248201527f496e76616c6964205553444320616464726573730000000000000000000000006044820152606401620000c2565b6001600160a01b038116620001ab5760405162461bcd60e51b815260206004820152601860248201527f496e76616c6964207472656173757279206164647265737300000000000000006044820152606401620000c2565b6001600160a01b03918216608052601380546001600160a01b03191691909216179055620003e1565b600680546001600160a01b038381166001600160a01b0319831681179093556040519116919082907f8be0079c531659141344cd1fd0a4f28419497f9722a3daafe3b4186f6b6457e0905f90a35050565b80516001600160a01b03811681146200023c575f80fd5b919050565b5f806040838503121562000253575f80fd5b6200025e8362000225565b91506200026e6020840162000225565b90509250929050565b634e487b7160e01b5f52604160045260245ffd5b600181811c90821680620002a057607f821691505b602082108103620002bf57634e487b7160e01b5f52602260045260245ffd5b50919050565b601f8211156200031057805f5260205f20601f840160051c81016020851015620002ec5750805b601f840160051c820191505b818110156200030d575f8155600101620002f8565b50505b505050565b81516001600160401b0381111562000331576200033162000277565b62000349816200034284546200028b565b84620002c5565b602080601f8311600181146200037f575f8415620003675750858301515b5f19600386901b1c1916600185901b178555620003d9565b5f85815260208120601f198616915b82811015620003af578886015182559484019460019091019084016200038e565b5085821015620003cd57878501515f19600388901b60f8161c191681555b505060018460011b0185555b505050505050565b608051614680620004325f395f81816104c20152818161093001528181610c4c015281816112e50152818161183401528181611870015281816118d501528181611a66015261226001526146805ff3fe608060405234801561000f575f80fd5b5060043610610297575f3560e01c806370a0823111610161578063a694fc3a116100ca578063df3225ac11610084578063df3225ac146105cd578063e985e9c5146105d6578063f0f44260146105e9578063f2fde38b146105fc578063f5f5dd411461060f578063fe90ff7d14610619575f80fd5b8063a694fc3a14610559578063b88d4fde1461056c578063bf2d9e0b1461057f578063c07b528a14610588578063c87b56dd146105a7578063dcce46ca146105ba575f80fd5b80638e321c711161011b5780638e321c711461050857806393a5bc411461051b57806395d89b411461052e5780639a15972014610536578063a22cb4651461053e578063a3ac707e14610551575f80fd5b806370a0823114610482578063715018a61461049557806381d6b0d81461049d57806389a30271146104bd5780638c0dd79a146104e45780638da5cb5b146104f7575f80fd5b8063476343ee1161020357806354fcf2e0116101bd57806354fcf2e01461042e57806356574df014610437578063587f5ed71461044a5780635f81a57c1461045357806361d027b31461045c5780636352211e1461046f575f80fd5b8063476343ee146103b857806349a2104d146103c057806349f86f34146103ca5780634a3b68cc146103ea5780635328d1df14610412578063539aa77f14610425575f80fd5b806323b872dd1161025457806323b872dd1461034f57806327ed7188146103625780632e17de781461036c5780633f9604481461037f57806341f66f391461039257806342842e0e146103a5575f80fd5b806301ffc9a71461029b57806306fdde03146102c3578063081812fc146102d8578063095ea7b3146103035780631307e5761461031857806316934fc414610330575b5f80fd5b6102ae6102a9366004613481565b61062c565b60405190151581526020015b60405180910390f35b6102cb61067d565b6040516102ba91906134f0565b6102eb6102e6366004613502565b61070c565b6040516001600160a01b0390911681526020016102ba565b610316610311366004613534565b610733565b005b610322620f424081565b6040519081526020016102ba565b61032261033e36600461355c565b600b6020525f908152604090205481565b61031661035d366004613575565b610742565b6103226298968081565b61031661037a366004613502565b6107d0565b61031661038d3660046135f3565b6109ae565b6103166103a036600461363b565b610afc565b6103166103b3366004613575565b610bca565b610316610be9565b610322620186a081565b6103dd6103d8366004613502565b610c75565b6040516102ba91906136f1565b6102eb6103f836600461355c565b600c6020525f90815260409020546001600160a01b031681565b6103226104203660046137eb565b610fcf565b6103226101f481565b61032260105481565b610316610445366004613502565b611376565b61032260145481565b61032260115481565b6013546102eb906001600160a01b031681565b6102eb61047d366004613502565b61139e565b61032261049036600461355c565b6113a8565b6103166113ed565b6104b06104ab36600461355c565b611400565b6040516102ba91906138bd565b6102eb7f000000000000000000000000000000000000000000000000000000000000000081565b6103166104f23660046135f3565b611469565b6006546001600160a01b03166102eb565b6104b061051636600461355c565b61160c565b610316610529366004613502565b611673565b6102cb61196f565b600954610322565b61031661054c366004613900565b61197e565b6104b0611989565b610316610567366004613502565b6119de565b61031661057a36600461394d565b611ad9565b61032260125481565b61032261059636600461355c565b600d6020525f908152604090205481565b6102cb6105b5366004613502565b611af1565b6103166105c8366004613502565b611ee1565b6103226107d081565b6102ae6105e4366004613a22565b612059565b6103166105f736600461355c565b612086565b61031661060a36600461355c565b6120f9565b6103226201518081565b610316610627366004613502565b612133565b5f6001600160e01b031982166380ac58cd60e01b148061065c57506001600160e01b03198216635b5e139f60e01b145b8061067757506301ffc9a760e01b6001600160e01b03198316145b92915050565b60605f805461068b90613a4a565b80601f01602080910402602001604051908101604052809291908181526020018280546106b790613a4a565b80156107025780601f106106d957610100808354040283529160200191610702565b820191905f5260205f20905b8154815290600101906020018083116106e557829003601f168201915b5050505050905090565b5f610716826122cb565b505f828152600460205260409020546001600160a01b0316610677565b61073e828233612302565b5050565b6001600160a01b03821661077057604051633250574960e11b81525f60048201526024015b60405180910390fd5b5f61077c83833361230f565b9050836001600160a01b0316816001600160a01b0316146107ca576040516364283d7b60e01b81526001600160a01b0380861660048301526024820184905282166044820152606401610767565b50505050565b6107d86123fc565b5f81116108275760405162461bcd60e51b815260206004820152601d60248201527f416d6f756e74206d7573742062652067726561746572207468616e20300000006044820152606401610767565b335f908152600b60205260409020548111156108855760405162461bcd60e51b815260206004820152601a60248201527f496e73756666696369656e74207374616b652062616c616e63650000000000006044820152606401610767565b335f908152600b602052604081205461089f908390613a96565b90506108aa33612417565b1561091957629896808110156109195760405162461bcd60e51b815260206004820152602e60248201527f4d757374206d61696e7461696e206d696e696d756d207374616b65207769746860448201526d206163746976652071756573747360901b6064820152608401610767565b335f818152600b6020526040902082905561095f907f00000000000000000000000000000000000000000000000000000000000000006001600160a01b031690846124c3565b60405182815233907f0f5bb82176feb1b5e747e28471aa92156a04d9f3ab9f45f28e2d704232b93f759060200160405180910390a2506109ab60015f8051602061462b83398151915255565b50565b5f838152600860205260408120906109c5856124f8565b6001600160a01b0316036109eb5760405162461bcd60e51b815260040161076790613aa9565b80546001600160a01b03163314610a445760405162461bcd60e51b815260206004820152601760248201527f4f6e6c792063726561746f722063616e2072656a6563740000000000000000006044820152606401610767565b6002600982015460ff166004811115610a5f57610a5f613665565b14610a7c5760405162461bcd60e51b815260040161076790613ad7565b60098101805460ff1916600117905560408051602081019091525f81526004820190610aa89082613b5d565b5060018101546040516001600160a01b039091169085907f5608588a220d94fa98a089996809d8e1d3dda5bf44266984ae90f1bae574ac5090610aee9087908790613c41565b60405180910390a350505050565b610b046123fc565b6001600160a01b038116610b5a5760405162461bcd60e51b815260206004820152601860248201527f496e76616c6964207265666572726572206164647265737300000000000000006044820152606401610767565b336001600160a01b03821603610baa5760405162461bcd60e51b815260206004820152601560248201527421b0b73737ba103932b332b9103cb7bab939b2b63360591b6044820152606401610767565b610bb48282612512565b61073e60015f8051602061462b83398151915255565b610be483838360405180602001604052805f815250611ad9565b505050565b610bf1612722565b60145480610c375760405162461bcd60e51b81526020600482015260136024820152724e6f206665657320746f20776974686472617760681b6044820152606401610767565b5f6014556013546109ab906001600160a01b037f000000000000000000000000000000000000000000000000000000000000000081169116836124c3565b610c7d6133f6565b5f610c87836124f8565b6001600160a01b031603610cad5760405162461bcd60e51b815260040161076790613aa9565b5f8281526008602090815260409182902082516101608101845281546001600160a01b039081168252600183015416928101929092526002810180549293919291840191610cfa90613a4a565b80601f0160208091040260200160405190810160405280929190818152602001828054610d2690613a4a565b8015610d715780601f10610d4857610100808354040283529160200191610d71565b820191905f5260205f20905b815481529060010190602001808311610d5457829003601f168201915b50505050508152602001600382018054610d8a90613a4a565b80601f0160208091040260200160405190810160405280929190818152602001828054610db690613a4a565b8015610e015780601f10610dd857610100808354040283529160200191610e01565b820191905f5260205f20905b815481529060010190602001808311610de457829003601f168201915b50505050508152602001600482018054610e1a90613a4a565b80601f0160208091040260200160405190810160405280929190818152602001828054610e4690613a4a565b8015610e915780601f10610e6857610100808354040283529160200191610e91565b820191905f5260205f20905b815481529060010190602001808311610e7457829003601f168201915b505050918352505060058201546020820152600682015460408201526007820154606082015260088201546080820152600982015460a09091019060ff166004811115610ee057610ee0613665565b6004811115610ef157610ef1613665565b8152602001600a8201805480602002602001604051908101604052809291908181526020015f905b82821015610fc1578382905f5260205f20018054610f3690613a4a565b80601f0160208091040260200160405190810160405280929190818152602001828054610f6290613a4a565b8015610fad5780601f10610f8457610100808354040283529160200191610fad565b820191905f5260205f20905b815481529060010190602001808311610f9057829003601f168201915b505050505081526020019060010190610f19565b505050915250909392505050565b5f610fd86123fc565b335f908152600b602052604090205462989680111561102e5760405162461bcd60e51b8152602060048201526012602482015271496e73756666696369656e74207374616b6560701b6044820152606401610767565b620f42408510156110785760405162461bcd60e51b8152602060048201526014602482015273426f756e74792062656c6f77206d696e696d756d60601b6044820152606401610767565b4282116110c75760405162461bcd60e51b815260206004820152601e60248201527f446561646c696e65206d75737420626520696e207468652066757475726500006044820152606401610767565b60648811156111095760405162461bcd60e51b815260206004820152600e60248201526d5469746c6520746f6f206c6f6e6760901b6044820152606401610767565b6107d08611156111525760405162461bcd60e51b81526020600482015260146024820152734465736372697074696f6e20746f6f206c6f6e6760601b6044820152606401610767565b60058311156111995760405162461bcd60e51b8152602060048201526013602482015272546f6f206d616e7920736b696c6c207461677360681b6044820152606401610767565b60078054905f6111a883613c54565b909155505f81815260086020526040902080546001600160a01b03191633178155909150600281016111db8a8c83613c6c565b50600381016111eb888a83613c6c565b50600581018690554260068201556008810183905560098101805460ff191690555f5b848110156112665781600a0186868381811061122c5761122c613d26565b905060200281019061123e9190613d3a565b82546001810184555f93845260209093209092019161125d9183613c6c565b5060010161120e565b50611271338361274f565b61127a826127b0565b335f908152600e60209081526040822080546001810182559083529082200183905560108054916112aa83613c54565b9190505550620186a060145f8282546112c39190613d7d565b9091555061130d905033306112db620186a08a613d7d565b6001600160a01b037f0000000000000000000000000000000000000000000000000000000000000000169291906127f3565b336001600160a01b0316827f682e5bb839de612bf3d323f180b71f59bd643fd1b4237d1202c6c2be9234ad73888d8d60405161134b93929190613d90565b60405180910390a35061136a60015f8051602061462b83398151915255565b98975050505050505050565b61137e6123fc565b611388815f612512565b6109ab60015f8051602061462b83398151915255565b5f610677826122cb565b5f6001600160a01b0382166113d2576040516322718ad960e21b81525f6004820152602401610767565b506001600160a01b03165f9081526003602052604090205490565b6113f5612722565b6113fe5f612829565b565b6001600160a01b0381165f908152600e602090815260409182902080548351818402810184019094528084526060939283018282801561145d57602002820191905f5260205f20905b815481526020019060010190808311611449575b50505050509050919050565b5f83815260086020526040812090611480856124f8565b6001600160a01b0316036114a65760405162461bcd60e51b815260040161076790613aa9565b60018101546001600160a01b031633146115025760405162461bcd60e51b815260206004820152601760248201527f4f6e6c7920636c61696d65722063616e207375626d69740000000000000000006044820152606401610767565b6001600982015460ff16600481111561151d5761151d613665565b1461156a5760405162461bcd60e51b815260206004820152601b60248201527f5175657374206e6f7420696e20434c41494d45442073746174757300000000006044820152606401610767565b816115b75760405162461bcd60e51b815260206004820152601a60248201527f526573756c74205552492063616e6e6f7420626520656d7074790000000000006044820152606401610767565b600481016115c6838583613c6c565b5060098101805460ff19166002179055604051339085907fc06b551d984e333ac851ab20b1454a08d92740468f52ff54c0cd5270817f20a990610aee9087908790613c41565b6001600160a01b0381165f908152600f602090815260409182902080548351818402810184019094528084526060939283018282801561145d57602002820191905f5260205f20908154815260200190600101908083116114495750505050509050919050565b61167b6123fc565b5f81815260086020526040812090611692836124f8565b6001600160a01b0316036116b85760405162461bcd60e51b815260040161076790613aa9565b80546001600160a01b031633146117115760405162461bcd60e51b815260206004820152601860248201527f4f6e6c792063726561746f722063616e20617070726f766500000000000000006044820152606401610767565b6002600982015460ff16600481111561172c5761172c613665565b146117495760405162461bcd60e51b815260040161076790613ad7565b60058101545f61271061175e6101f484613db2565b6117689190613dc9565b90505f6117758284613a96565b60018501546001600160a01b039081165f908152600c6020526040812054929350849290911680156117c9576127106117b06107d087613db2565b6117ba9190613dc9565b91506117c68286613a96565b94505b60098701805460ff19166003179055601180548791905f906117ec908490613d7d565b925050819055508260125f8282546118049190613d7d565b925050819055508460145f82825461181c9190613d7d565b9091555050600187015461185d906001600160a01b037f000000000000000000000000000000000000000000000000000000000000000081169116866124c3565b81156118c4576118976001600160a01b037f00000000000000000000000000000000000000000000000000000000000000001682846124c3565b6001600160a01b0381165f908152600d6020526040812080548492906118be908490613d7d565b90915550505b6013546118fe906001600160a01b037f000000000000000000000000000000000000000000000000000000000000000081169116876124c3565b600187015460408051868152602081018890529081018490526001600160a01b039091169089907fe2ca148bb9a215a1b1da9e97fb34a8571d26d0861330fa8649ac96bfc4ec4fbf9060600160405180910390a3505050505050506109ab60015f8051602061462b83398151915255565b60606001805461068b90613a4a565b61073e33838361287a565b6060600980548060200260200160405190810160405280929190818152602001828054801561070257602002820191905f5260205f20905b8154815260200190600101908083116119c1575050505050905090565b6119e66123fc565b5f8111611a355760405162461bcd60e51b815260206004820152601d60248201527f416d6f756e74206d7573742062652067726561746572207468616e20300000006044820152606401610767565b335f908152600b602052604081208054839290611a53908490613d7d565b90915550611a8e90506001600160a01b037f0000000000000000000000000000000000000000000000000000000000000000163330846127f3565b60405181815233907f9e71bc8eea02a63969f509818f2dafb9254532904319f9dbda79b67bd34a5f3d9060200160405180910390a26109ab60015f8051602061462b83398151915255565b611ae4848484610742565b6107ca3385858585612941565b60605f611afd836124f8565b6001600160a01b031603611b235760405162461bcd60e51b815260040161076790613aa9565b5f82815260086020908152604080832081516101608101835281546001600160a01b039081168252600183015416938101939093526002810180549192840191611b6c90613a4a565b80601f0160208091040260200160405190810160405280929190818152602001828054611b9890613a4a565b8015611be35780601f10611bba57610100808354040283529160200191611be3565b820191905f5260205f20905b815481529060010190602001808311611bc657829003601f168201915b50505050508152602001600382018054611bfc90613a4a565b80601f0160208091040260200160405190810160405280929190818152602001828054611c2890613a4a565b8015611c735780601f10611c4a57610100808354040283529160200191611c73565b820191905f5260205f20905b815481529060010190602001808311611c5657829003601f168201915b50505050508152602001600482018054611c8c90613a4a565b80601f0160208091040260200160405190810160405280929190818152602001828054611cb890613a4a565b8015611d035780601f10611cda57610100808354040283529160200191611d03565b820191905f5260205f20905b815481529060010190602001808311611ce657829003601f168201915b505050918352505060058201546020820152600682015460408201526007820154606082015260088201546080820152600982015460a09091019060ff166004811115611d5257611d52613665565b6004811115611d6357611d63613665565b8152602001600a8201805480602002602001604051908101604052809291908181526020015f905b82821015611e33578382905f5260205f20018054611da890613a4a565b80601f0160208091040260200160405190810160405280929190818152602001828054611dd490613a4a565b8015611e1f5780601f10611df657610100808354040283529160200191611e1f565b820191905f5260205f20905b815481529060010190602001808311611e0257829003601f168201915b505050505081526020019060010190611d8b565b505050508152505090505f611e4782612a69565b90505f611e5385612c28565b8360600151611e6184612cb8565b611e7c620f42408760a00151611e779190613dc9565b612c28565b611e8a876101200151612cc4565b604051602001611e9e959493929190613e03565b6040516020818303038152906040529050611eb881612cb8565b604051602001611ec89190613f6e565b6040516020818303038152906040529350505050919050565b5f81815260086020526040812090611ef8836124f8565b6001600160a01b031603611f1e5760405162461bcd60e51b815260040161076790613aa9565b6001600982015460ff166004811115611f3957611f39613665565b14611f865760405162461bcd60e51b815260206004820152601b60248201527f5175657374206e6f7420696e20434c41494d45442073746174757300000000006044820152606401610767565b620151808160070154611f999190613d7d565b4211611fe75760405162461bcd60e51b815260206004820152601960248201527f436c61696d2074696d656f7574206e6f742072656163686564000000000000006044820152606401610767565b6001810180546001600160a01b031981169091555f600783015560098201805460ff191690556001600160a01b031661201f836127b0565b6040516001600160a01b0382169084907fc10b7c95a5e656acb543d3f97266975b560f1901dae2dda999dbc380642896b1905f90a3505050565b6001600160a01b039182165f90815260056020908152604080832093909416825291909152205460ff1690565b61208e612722565b6001600160a01b0381166120d75760405162461bcd60e51b815260206004820152601060248201526f496e76616c696420747265617375727960801b6044820152606401610767565b601380546001600160a01b0319166001600160a01b0392909216919091179055565b612101612722565b6001600160a01b03811661212a57604051631e4fbdf760e01b81525f6004820152602401610767565b6109ab81612829565b61213b6123fc565b5f81815260086020526040812090612152836124f8565b6001600160a01b0316036121785760405162461bcd60e51b815260040161076790613aa9565b80546001600160a01b031633146121d15760405162461bcd60e51b815260206004820152601760248201527f4f6e6c792063726561746f722063616e2063616e63656c0000000000000000006044820152606401610767565b5f600982015460ff1660048111156121eb576121eb613665565b146122335760405162461bcd60e51b81526020600482015260186024820152775175657374206e6f7420696e204f50454e2073746174757360401b6044820152606401610767565b60098101805460ff1916600417905561224b82612e20565b8054600582015461228a916001600160a01b037f00000000000000000000000000000000000000000000000000000000000000008116929116906124c3565b60405182907f8be3723411cc8577ee6cd118cbdbcefd5a0d748b4ce31edbbbad3b8a013cc799905f90a2506109ab60015f8051602061462b83398151915255565b5f806122d6836124f8565b90506001600160a01b03811661067757604051637e27328960e01b815260048101849052602401610767565b610be48383836001612ed6565b5f8061231a846124f8565b90506001600160a01b0383161561233657612336818486612fda565b6001600160a01b03811615612370576123515f855f80612ed6565b6001600160a01b0381165f90815260036020526040902080545f190190555b6001600160a01b0385161561239e576001600160a01b0385165f908152600360205260409020805460010190555b5f8481526002602052604080822080546001600160a01b0319166001600160a01b0389811691821790925591518793918516917fddf252ad1be2c89b69c2b068fc378daa952ba7f163c4a11628f55a4df523b3ef91a4949350505050565b61240461303e565b60025f8051602061462b83398151915255565b6001600160a01b0381165f908152600e60205260408120815b81548110156124ba575f60085f84848154811061244f5761244f613d26565b5f918252602080832090910154835282019290925260400181206009015460ff16915081600481111561248457612484613665565b14806124a15750600181600481111561249f5761249f613665565b145b156124b157506001949350505050565b50600101612430565b505f9392505050565b6124d0838383600161306d565b610be457604051635274afe760e01b81526001600160a01b0384166004820152602401610767565b5f908152600260205260409020546001600160a01b031690565b5f82815260086020526040812090612529846124f8565b6001600160a01b03160361254f5760405162461bcd60e51b815260040161076790613aa9565b5f600982015460ff16600481111561256957612569613665565b146125b15760405162461bcd60e51b81526020600482015260186024820152775175657374206e6f7420696e204f50454e2073746174757360401b6044820152606401610767565b80546001600160a01b0316330361260a5760405162461bcd60e51b815260206004820152601e60248201527f43726561746f722063616e6e6f7420636c61696d206f776e20717565737400006044820152606401610767565b600180820180546001600160a01b0319163317905542600783015560098201805460ff19168280021790555061263f83612e20565b335f908152600f60209081526040822080546001810182559083529120018390556001600160a01b0382161580159061268d5750335f908152600c60205260409020546001600160a01b0316155b156126e657335f818152600c602052604080822080546001600160a01b0319166001600160a01b03871690811790915590519092917f5f1ca2fcc108b751843a763e60d2201f593516109d7dbb1b700468f2d4190bb791a35b6040516001600160a01b03831690339085907fdf5e1c72aa8b1adcb12ad3d094a70fe6987e08394e61945efbef552f85d0165c905f90a4505050565b6006546001600160a01b031633146113fe5760405163118cdaa760e01b8152336004820152602401610767565b6001600160a01b03821661277857604051633250574960e11b81525f6004820152602401610767565b5f61278483835f61230f565b90506001600160a01b03811615610be4576040516339e3563760e11b81525f6004820152602401610767565b600980545f838152600a60205260408120829055600182018355919091527f6e1540171b6c0c960b71a7020d9f60077f6af931a8bbf590da0223dacf75c7af0155565b6128018484848460016130cf565b6107ca57604051635274afe760e01b81526001600160a01b0385166004820152602401610767565b600680546001600160a01b038381166001600160a01b0319831681179093556040519116919082907f8be0079c531659141344cd1fd0a4f28419497f9722a3daafe3b4186f6b6457e0905f90a35050565b6001600160a01b0383166128a35760405163a9fbf51f60e01b81525f6004820152602401610767565b6001600160a01b0382166128d557604051630b61174360e31b81526001600160a01b0383166004820152602401610767565b6001600160a01b038381165f81815260056020908152604080832094871680845294825291829020805460ff191686151590811790915591519182527f17307eab39ab6107e8899845ad3d59bd9653f200f220920489ca2b5937696c31910160405180910390a3505050565b6001600160a01b0383163b15612a6257604051630a85bd0160e11b81526001600160a01b0384169063150b7a0290612983908890889087908790600401613fb2565b6020604051808303815f875af19250505080156129bd575060408051601f3d908101601f191682019092526129ba91810190613fe4565b60015b612a24573d8080156129ea576040519150601f19603f3d011682016040523d82523d5f602084013e6129ef565b606091505b5080515f03612a1c57604051633250574960e11b81526001600160a01b0385166004820152602401610767565b805160208201fd5b6001600160e01b03198116630a85bd0160e11b14612a6057604051633250574960e11b81526001600160a01b0385166004820152602401610767565b505b5050505050565b60605f612a7a836101200151612cc4565b90505f612a93620f42408560a00151611e779190613dc9565b604051602001612aa39190613fff565b60405160208183030381529060405290505f604051602001612ac490614027565b60405160208183030381529060405290505f856040015183604051602001612aed9291906142a2565b60405160208183030381529060405290505f84604051602001612b1091906143f0565b60405160208183030381529060405290505f604051602001612be4907f3c7265637420783d223334342220793d22333330222077696474683d2238222081527f6865696768743d2238222066696c6c3d2223666634613030222f3e0000000000602082018190527f3c7265637420783d223333362220793d22333232222077696474683d22382220603b830152605b82018190527f3c7265637420783d223335322220793d22333232222077696474683d2238222060768301526096820152651e17b9bb339f60d11b60b182015260b70190565b604051602081830303815290604052905083838383604051602001612c0c94939291906145c0565b6040516020818303038152906040529650505050505050919050565b60605f612c348361313c565b60010190505f8167ffffffffffffffff811115612c5357612c53613939565b6040519080825280601f01601f191660200182016040528015612c7d576020820181803683370190505b5090508181016020015b5f19016f181899199a1a9b1b9c1cb0b131b232b360811b600a86061a8153600a8504945084612c8757509392505050565b6060610677825f613213565b60605f826004811115612cd957612cd9613665565b03612cfe57505060408051808201909152600481526327b832b760e11b602082015290565b6001826004811115612d1257612d12613665565b03612d3e57505060408051808201909152600b81526a496e2050726f677265737360a81b602082015290565b6002826004811115612d5257612d52613665565b03612d8157505060408051808201909152600e81526d50656e64696e672052657669657760901b602082015290565b6003826004811115612d9557612d95613665565b03612dbf57505060408051808201909152600981526810dbdb5c1b195d195960ba1b602082015290565b6004826004811115612dd357612dd3613665565b03612dfd57505060408051808201909152600981526810d85b98d95b1b195960ba1b602082015290565b50506040805180820190915260078152662ab735b737bbb760c91b602082015290565b5f818152600a6020526040812054600954909190612e4090600190613a96565b9050808214612e9b575f60098281548110612e5d57612e5d613d26565b905f5260205f20015490508060098481548110612e7c57612e7c613d26565b5f918252602080832090910192909255918252600a9052604090208290555b6009805480612eac57612eac614616565b5f828152602080822083015f19908101839055909201909255938152600a90935250506040812055565b8080612eea57506001600160a01b03821615155b15612fab575f612ef9846122cb565b90506001600160a01b03831615801590612f255750826001600160a01b0316816001600160a01b031614155b8015612f385750612f368184612059565b155b15612f615760405163a9fbf51f60e01b81526001600160a01b0384166004820152602401610767565b8115612fa95783856001600160a01b0316826001600160a01b03167f8c5be1e5ebec7d5bd14f71427d1e84f3dd0314c0f7b2291e5b200ac8c7c3b92560405160405180910390a45b505b50505f90815260046020526040902080546001600160a01b0319166001600160a01b0392909216919091179055565b612fe5838383613392565b610be4576001600160a01b03831661301357604051637e27328960e01b815260048101829052602401610767565b60405163177e802f60e01b81526001600160a01b038316600482015260248101829052604401610767565b5f8051602061462b833981519152546002036113fe57604051633ee5aeb560e01b815260040160405180910390fd5b60405163a9059cbb60e01b5f8181526001600160a01b038616600452602485905291602083604481808b5af1925060015f511483166130c35783831516156130b7573d5f823e3d81fd5b5f873b113d1516831692505b60405250949350505050565b6040516323b872dd60e01b5f8181526001600160a01b038781166004528616602452604485905291602083606481808c5af1925060015f5114831661312b57838315161561311f573d5f823e3d81fd5b5f883b113d1516831692505b604052505f60605295945050505050565b5f8072184f03e93ff9f4daa797ed6e38ed64bf6a1f0160401b831061317a5772184f03e93ff9f4daa797ed6e38ed64bf6a1f0160401b830492506040015b6d04ee2d6d415b85acef810000000083106131a6576d04ee2d6d415b85acef8100000000830492506020015b662386f26fc1000083106131c457662386f26fc10000830492506010015b6305f5e10083106131dc576305f5e100830492506008015b61271083106131f057612710830492506004015b60648310613202576064830492506002015b600a83106106775760010192915050565b606082515f03613231575060408051602081019091525f8152610677565b5f82613261576003845160026132479190613d7d565b6132519190613dc9565b61325c906004613db2565b613286565b6003845160046132719190613db2565b61327c906002613d7d565b6132869190613dc9565b905060405191507f4142434445464748494a4b4c4d4e4f505152535455565758595a616263646566601f5261067083027f6768696a6b6c6d6e6f707172737475767778797a303132333435363738392b2f18603f526020820181810185865187016020810180515f82525b82841015613344576003840193508351603f8160121c16518753600187019650603f81600c1c16518753600187019650603f8160061c16518753600187019650603f8116518753506001860195506132f1565b90525085905061338557600386510660018114613368576002811461337b57613383565b603d6001840353603d6002840353613383565b603d60018403535b505b9183525060405292915050565b5f6001600160a01b038316158015906133ee5750826001600160a01b0316846001600160a01b031614806133cb57506133cb8484612059565b806133ee57505f828152600460205260409020546001600160a01b038481169116145b949350505050565b6040518061016001604052805f6001600160a01b031681526020015f6001600160a01b031681526020016060815260200160608152602001606081526020015f81526020015f81526020015f81526020015f81526020015f600481111561345f5761345f613665565b8152602001606081525090565b6001600160e01b0319811681146109ab575f80fd5b5f60208284031215613491575f80fd5b813561349c8161346c565b9392505050565b5f5b838110156134bd5781810151838201526020016134a5565b50505f910152565b5f81518084526134dc8160208601602086016134a3565b601f01601f19169290920160200192915050565b602081525f61349c60208301846134c5565b5f60208284031215613512575f80fd5b5035919050565b80356001600160a01b038116811461352f575f80fd5b919050565b5f8060408385031215613545575f80fd5b61354e83613519565b946020939093013593505050565b5f6020828403121561356c575f80fd5b61349c82613519565b5f805f60608486031215613587575f80fd5b61359084613519565b925061359e60208501613519565b9150604084013590509250925092565b5f8083601f8401126135be575f80fd5b50813567ffffffffffffffff8111156135d5575f80fd5b6020830191508360208285010111156135ec575f80fd5b9250929050565b5f805f60408486031215613605575f80fd5b83359250602084013567ffffffffffffffff811115613622575f80fd5b61362e868287016135ae565b9497909650939450505050565b5f806040838503121561364c575f80fd5b8235915061365c60208401613519565b90509250929050565b634e487b7160e01b5f52602160045260245ffd5b6005811061369557634e487b7160e01b5f52602160045260245ffd5b9052565b5f8282518085526020808601955060208260051b840101602086015f5b848110156136e457601f198684030189526136d28383516134c5565b988401989250908301906001016136b6565b5090979650505050505050565b6020815261370b6020820183516001600160a01b03169052565b5f602083015161372660408401826001600160a01b03169052565b5060408301516101608060608501526137436101808501836134c5565b91506060850151601f198086850301608087015261376184836134c5565b935060808701519150808685030160a087015261377e84836134c5565b935060a087015160c087015260c087015160e087015260e087015191506101008281880152808801519250506101208281880152808801519250506101406137c881880184613679565b8701518685039091018387015290506137e18382613699565b9695505050505050565b5f805f805f805f8060a0898b031215613802575f80fd5b883567ffffffffffffffff80821115613819575f80fd5b6138258c838d016135ae565b909a50985060208b013591508082111561383d575f80fd5b6138498c838d016135ae565b909850965060408b0135955060608b0135915080821115613868575f80fd5b818b0191508b601f83011261387b575f80fd5b813581811115613889575f80fd5b8c60208260051b850101111561389d575f80fd5b602083019550809450505050608089013590509295985092959890939650565b602080825282518282018190525f9190848201906040850190845b818110156138f4578351835292840192918401916001016138d8565b50909695505050505050565b5f8060408385031215613911575f80fd5b61391a83613519565b91506020830135801515811461392e575f80fd5b809150509250929050565b634e487b7160e01b5f52604160045260245ffd5b5f805f8060808587031215613960575f80fd5b61396985613519565b935061397760208601613519565b925060408501359150606085013567ffffffffffffffff8082111561399a575f80fd5b818701915087601f8301126139ad575f80fd5b8135818111156139bf576139bf613939565b604051601f8201601f19908116603f011681019083821181831017156139e7576139e7613939565b816040528281528a60208487010111156139ff575f80fd5b826020860160208301375f60208483010152809550505050505092959194509250565b5f8060408385031215613a33575f80fd5b613a3c83613519565b915061365c60208401613519565b600181811c90821680613a5e57607f821691505b602082108103613a7c57634e487b7160e01b5f52602260045260245ffd5b50919050565b634e487b7160e01b5f52601160045260245ffd5b8181038181111561067757610677613a82565b602080825260149082015273145d595cdd08191bd95cc81b9bdd08195e1a5cdd60621b604082015260600190565b60208082526022908201527f5175657374206e6f7420696e2050454e44494e475f5245564945572073746174604082015261757360f01b606082015260800190565b601f821115610be457805f5260205f20601f840160051c81016020851015613b3e5750805b601f840160051c820191505b81811015612a62575f8155600101613b4a565b815167ffffffffffffffff811115613b7757613b77613939565b613b8b81613b858454613a4a565b84613b19565b602080601f831160018114613bbe575f8415613ba75750858301515b5f19600386901b1c1916600185901b178555612a60565b5f85815260208120601f198616915b82811015613bec57888601518255948401946001909101908401613bcd565b5085821015613c0957878501515f19600388901b60f8161c191681555b5050505050600190811b01905550565b81835281816020850137505f828201602090810191909152601f909101601f19169091010190565b602081525f6133ee602083018486613c19565b5f60018201613c6557613c65613a82565b5060010190565b67ffffffffffffffff831115613c8457613c84613939565b613c9883613c928354613a4a565b83613b19565b5f601f841160018114613cc9575f8515613cb25750838201355b5f19600387901b1c1916600186901b178355612a62565b5f83815260208120601f198716915b82811015613cf85786850135825560209485019460019092019101613cd8565b5086821015613d14575f1960f88860031b161c19848701351681555b505060018560011b0183555050505050565b634e487b7160e01b5f52603260045260245ffd5b5f808335601e19843603018112613d4f575f80fd5b83018035915067ffffffffffffffff821115613d69575f80fd5b6020019150368190038213156135ec575f80fd5b8082018082111561067757610677613a82565b838152604060208201525f613da9604083018486613c19565b95945050505050565b808202811582820484141761067757610677613a82565b5f82613de357634e487b7160e01b5f52601260045260245ffd5b500490565b5f8151613df98185602086016134a3565b9290920192915050565b737b226e616d65223a22436c61775175657374202360601b815285515f90613e32816014850160208b016134a3565b701116113232b9b1b934b83a34b7b7111d1160791b6014918401918201528651613e63816025840160208b016134a3565b7f222c22696d616765223a22646174613a696d6167652f7376672b786d6c3b626160259290910191820152641cd94d8d0b60da1b60458201528551613eaf81604a840160208a016134a3565b6f222c2261747472696275746573223a5b60801b604a92909101918201527f7b2274726169745f74797065223a22426f756e7479222c2276616c7565223a22605a82015261136a613f60613f52613f4c613f23613f0f607a87018b613de8565b67081554d110c89f4b60c21b815260080190565b7f7b2274726169745f74797065223a22537461747573222c2276616c7565223a22815260200190565b87613de8565b61227d60f01b815260020190565b615d7d60f01b815260020190565b7f646174613a6170706c69636174696f6e2f6a736f6e3b6261736536342c00000081525f8251613fa581601d8501602087016134a3565b91909101601d0192915050565b6001600160a01b03858116825284166020820152604081018390526080606082018190525f906137e1908301846134c5565b5f60208284031215613ff4575f80fd5b815161349c8161346c565b5f82516140108184602087016134a3565b64205553444360d81b920191825250600501919050565b7f3c73766720786d6c6e733d22687474703a2f2f7777772e77332e6f72672f323081527f30302f737667222076696577426f783d223020302034303020343030223e000060208201527f3c726563742077696474683d2234303022206865696768743d22343030222066603e8201526e34b6361e911198181a99232311179f60891b605e8201527f3c7265637420783d22382220793d2238222077696474683d2233383422206865606d8201527f696768743d22333834222066696c6c3d226e6f6e6522207374726f6b653d2223608d8201527f66663461303022207374726f6b652d77696474683d223422207374726f6b652d60ad820152703230b9b430b93930bc9e911c161c11179f60791b60cd8201527f3c7265637420783d2232302220793d223230222077696474683d22333630222060de8201527f6865696768743d22333630222072783d2234222066696c6c3d2223303031613460fe8201527132111037b830b1b4ba3c9e9118171b11179f60711b61011e8201525f6106776141fd61013084017f3c7265637420783d2232302220793d223230222077696474683d22333630222081527f6865696768743d223530222066696c6c3d2223666634613030222f3e000000006020820152603c0190565b7f3c7465787420783d223230302220793d2235322220746578742d616e63686f7281527f3d226d6964646c65222066696c6c3d2277686974652220666f6e742d66616d6960208201527f6c793d226d6f6e6f73706163652220666f6e742d73697a653d2231382220666f60408201527f6e742d7765696768743d22626f6c64223e434c415751554553543c2f746578746060820152601f60f91b608082015260810190565b7f3c7465787420783d223230302220793d223131302220746578742d616e63686f81527f723d226d6964646c65222066696c6c3d2277686974652220666f6e742d66616d60208201527f696c793d226d6f6e6f73706163652220666f6e742d73697a653d223136223e0060408201525f835161432581605f8501602088016134a3565b661e17ba32bc3a1f60c91b605f9184019182018190527f3c7465787420783d223230302220793d223230302220746578742d616e63686f60668301527f723d226d6964646c65222066696c6c3d22236666346130302220666f6e742d6660868301527f616d696c793d226d6f6e6f73706163652220666f6e742d73697a653d2232382260a683015273103337b73a16bbb2b4b3b43a1e913137b632111f60611b60c683015284516143dd8160da8501602089016134a3565b60da92019182015260e101949350505050565b7f3c7265637420783d223133302220793d22323530222077696474683d2231343081527f22206865696768743d223330222072783d2234222066696c6c3d2223666634616020820152721818111037b830b1b4ba3c9e9118171c11179f60691b60408201527f3c7465787420783d223230302220793d223237312220746578742d616e63686f60538201527f723d226d6964646c65222066696c6c3d2277686974652220666f6e742d66616d60738201527f696c793d226d6f6e6f73706163652220666f6e742d73697a653d223134223e0060938201525f82516144db8160b28501602087016134a3565b661e17ba32bc3a1f60c91b60b2918401918201527f3c7265637420783d2234302220793d22333330222077696474683d223822206860b98201527f65696768743d2238222066696c6c3d2223666634613030222f3e00000000000060d982018190527f3c7265637420783d2234382220793d22333232222077696474683d223822206860f38301526101138201526133ee61012d82017f3c7265637420783d2235362220793d22333330222077696474683d223822206881527f65696768743d2238222066696c6c3d2223666634613030222f3e0000000000006020820152603a0190565b5f85516145d1818460208a016134a3565b8551908301906145e5818360208a016134a3565b85519101906145f88183602089016134a3565b845191019061460b8183602088016134a3565b019695505050505050565b634e487b7160e01b5f52603160045260245ffdfe9b779b17422d0df92223018b32b4d1fa46e071723d6817e2486d003becc55f00a26469706673582212203a8c00657fdf0bbf78f632298a6e1890b71488bab0f8ab12297725d2694b682964736f6c63430008180033","linkReferences":{}},"methodIdentifiers":{"CLAIM_TIMEOUT()":"f5f5dd41","CREATION_FEE()":"49a2104d","MIN_BOUNTY()":"1307e576","MIN_STAKE_AMOUNT()":"27ed7188","PLATFORM_FEE_BPS()":"539aa77f","REFERRAL_SHARE_BPS()":"df3225ac","USDC()":"89a30271","accumulatedFees()":"587f5ed7","approve(address,uint256)":"095ea7b3","approveCompletion(uint256)":"93a5bc41","balanceOf(address)":"70a08231","cancelQuest(uint256)":"fe90ff7d","claimQuest(uint256)":"56574df0","claimQuestWithReferral(uint256,address)":"41f66f39","createQuest(string,string,uint256,string[],uint256)":"5328d1df","getApproved(uint256)":"081812fc","getOpenQuests()":"a3ac707e","getQuest(uint256)":"49f86f34","getQuestsByClaimer(address)":"8e321c71","getQuestsByCreator(address)":"81d6b0d8","isApprovedForAll(address,address)":"e985e9c5","name()":"06fdde03","openQuestCount()":"9a159720","owner()":"8da5cb5b","ownerOf(uint256)":"6352211e","reclaimQuest(uint256)":"dcce46ca","referralEarnings(address)":"c07b528a","referrers(address)":"4a3b68cc","rejectCompletion(uint256,string)":"3f960448","renounceOwnership()":"715018a6","safeTransferFrom(address,address,uint256)":"42842e0e","safeTransferFrom(address,address,uint256,bytes)":"b88d4fde","setApprovalForAll(address,bool)":"a22cb465","setTreasury(address)":"f0f44260","stake(uint256)":"a694fc3a","stakes(address)":"16934fc4","submitResult(uint256,string)":"8c0dd79a","supportsInterface(bytes4)":"01ffc9a7","symbol()":"95d89b41","tokenURI(uint256)":"c87b56dd","totalQuests()":"54fcf2e0","totalRevenue()":"bf2d9e0b","totalVolume()":"5f81a57c","transferFrom(address,address,uint256)":"23b872dd","transferOwnership(address)":"f2fde38b","treasury()":"61d027b3","unstake(uint256)":"2e17de78","withdrawFees()":"476343ee"},"id":43}