{"abi":[{"type":"constructor","inputs":[{"name":"_usdc","type":"address","internalType":"address"},{"name":"_treasury","type":"address","internalType":"address"}],"stateMutability":"nonpayable"},{"type":"function","name":"CLAIM_TIMEOUT","inputs":[],"outputs":[{"name":"","type":"uint256","internalType":"uint256"}],"stateMutability":"view"},{"type":"function","name":"CREATION_FEE","inputs":[],"outputs":[{"name":"","type":"uint256","internalType":"uint256"}],"stateMutability":"view"},{"type":"function","name":"MIN_BOUNTY","inputs":[],"outputs":[{"name":"","type":"uint256","internalType":"uint256"}],"stateMutability":"view"},{"type":"function","name":"MIN_STAKE_AMOUNT","inputs":[],"outputs":[{"name":"","type":"uint256","internalType":"uint256"}],"stateMutability":"view"},{"type":"function","name":"PLATFORM_FEE_BPS","inputs":[],"outputs":[{"name":"","type":"uint256","internalType":"uint256"}],"stateMutability":"view"},{"type":"function","name":"REFERRAL_SHARE_BPS","inputs":[],"outputs":[{"name":"","type":"uint256","internalType":"uint256"}],"stateMutability":"view"},{"type":"function","name":"USDC","inputs":[],"outputs":[{"name":"","type":"address","internalType":"address"}],"stateMutability":"view"},{"type":"function","name":"approve","inputs":[{"name":"to","type":"address","internalType":"address"},{"name":"tokenId","type":"uint256","internalType":"uint256"}],"outputs":[],"stateMutability":"nonpayable"},{"type":"function","name":"approveCompletion","inputs":[{"name":"questId","type":"uint256","internalType":"uint256"}],"outputs":[],"stateMutability":"nonpayable"},{"type":"function","name":"balanceOf","inputs":[{"name":"owner","type":"address","internalType":"address"}],"outputs":[{"name":"","type":"uint256","internalType":"uint256"}],"stateMutability":"view"},{"type":"function","name":"cancelQuest","inputs":[{"name":"questId","type":"uint256","internalType":"uint256"}],"outputs":[],"stateMutability":"nonpayable"},{"type":"function","name":"claimQuest","inputs":[{"name":"questId","type":"uint256","internalType":"uint256"}],"outputs":[],"stateMutability":"nonpayable"},{"type":"function","name":"claimQuestWithReferral","inputs":[{"name":"questId","type":"uint256","internalType":"uint256"},{"name":"referrer","type":"address","internalType":"address"}],"outputs":[],"stateMutability":"nonpayable"},{"type":"function","name":"createQuest","inputs":[{"name":"title","type":"string","internalType":"string"},{"name":"description","type":"string","internalType":"string"},{"name":"bountyAmount","type":"uint256","internalType":"uint256"},{"name":"skillTags","type":"string[]","internalType":"string[]"},{"name":"deadline","type":"uint256","internalType":"uint256"}],"outputs":[{"name":"questId","type":"uint256","internalType":"uint256"}],"stateMutability":"nonpayable"},{"type":"function","name":"getApproved","inputs":[{"name":"tokenId","type":"uint256","internalType":"uint256"}],"outputs":[{"name":"","type":"address","internalType":"address"}],"stateMutability":"view"},{"type":"function","name":"getOpenQuests","inputs":[],"outputs":[{"name":"","type":"uint256[]","internalType":"uint256[]"}],"stateMutability":"view"},{"type":"function","name":"getQuest","inputs":[{"name":"questId","type":"uint256","internalType":"uint256"}],"outputs":[{"name":"","type":"tuple","internalType":"struct IClawQuests.Quest","components":[{"name":"creator","type":"address","internalType":"address"},{"name":"claimer","type":"address","internalType":"address"},{"name":"title","type":"string","internalType":"string"},{"name":"description","type":"string","internalType":"string"},{"name":"resultURI","type":"string","internalType":"string"},{"name":"bountyAmount","type":"uint256","internalType":"uint256"},{"name":"createdAt","type":"uint256","internalType":"uint256"},{"name":"claimedAt","type":"uint256","internalType":"uint256"},{"name":"deadline","type":"uint256","internalType":"uint256"},{"name":"status","type":"uint8","internalType":"enum IClawQuests.QuestStatus"},{"name":"skillTags","type":"string[]","internalType":"string[]"}]}],"stateMutability":"view"},{"type":"function","name":"getQuestsByClaimer","inputs":[{"name":"claimer","type":"address","internalType":"address"}],"outputs":[{"name":"","type":"uint256[]","internalType":"uint256[]"}],"stateMutability":"view"},{"type":"function","name":"getQuestsByCreator","inputs":[{"name":"creator","type":"address","internalType":"address"}],"outputs":[{"name":"","type":"uint256[]","internalType":"uint256[]"}],"stateMutability":"view"},{"type":"function","name":"isApprovedForAll","inputs":[{"name":"owner","type":"address","internalType":"address"},{"name":"operator","type":"address","internalType":"address"}],"outputs":[{"name":"","type":"bool","internalType":"bool"}],"stateMutability":"view"},{"type":"function","name":"name","inputs":[],"outputs":[{"name":"","type":"string","internalType":"string"}],"stateMutability":"view"},{"type":"function","name":"openQuestCount","inputs":[],"outputs":[{"name":"","type":"uint256","internalType":"uint256"}],"stateMutability":"view"},{"type":"function","name":"owner","inputs":[],"outputs":[{"name":"","type":"address","internalType":"address"}],"stateMutability":"view"},{"type":"function","name":"ownerOf","inputs":[{"name":"tokenId","type":"uint256","internalType":"uint256"}],"outputs":[{"name":"","type":"address","internalType":"address"}],"stateMutability":"view"},{"type":"function","name":"reclaimQuest","inputs":[{"name":"questId","type":"uint256","internalType":"uint256"}],"outputs":[],"stateMutability":"nonpayable"},{"type":"function","name":"referralEarnings","inputs":[{"name":"","type":"address","internalType":"address"}],"outputs":[{"name":"","type":"uint256","internalType":"uint256"}],"stateMutability":"view"},{"type":"function","name":"referrers","inputs":[{"name":"","type":"address","internalType":"address"}],"outputs":[{"name":"","type":"address","internalType":"address"}],"stateMutability":"view"},{"type":"function","name":"rejectCompletion","inputs":[{"name":"questId","type":"uint256","internalType":"uint256"},{"name":"reason","type":"string","internalType":"string"}],"outputs":[],"stateMutability":"nonpayable"},{"type":"function","name":"renounceOwnership","inputs":[],"outputs":[],"stateMutability":"nonpayable"},{"type":"function","name":"safeTransferFrom","inputs":[{"name":"from","type":"address","internalType":"address"},{"name":"to","type":"address","internalType":"address"},{"name":"tokenId","type":"uint256","internalType":"uint256"}],"outputs":[],"stateMutability":"nonpayable"},{"type":"function","name":"safeTransferFrom","inputs":[{"name":"from","type":"address","internalType":"address"},{"name":"to","type":"address","internalType":"address"},{"name":"tokenId","type":"uint256","internalType":"uint256"},{"name":"data","type":"bytes","internalType":"bytes"}],"outputs":[],"stateMutability":"nonpayable"},{"type":"function","name":"setApprovalForAll","inputs":[{"name":"operator","type":"address","internalType":"address"},{"name":"approved","type":"bool","internalType":"bool"}],"outputs":[],"stateMutability":"nonpayable"},{"type":"function","name":"setTreasury","inputs":[{"name":"_treasury","type":"address","internalType":"address"}],"outputs":[],"stateMutability":"nonpayable"},{"type":"function","name":"stake","inputs":[{"name":"amount","type":"uint256","internalType":"uint256"}],"outputs":[],"stateMutability":"nonpayable"},{"type":"function","name":"stakes","inputs":[{"name":"","type":"address","internalType":"address"}],"outputs":[{"name":"","type":"uint256","internalType":"uint256"}],"stateMutability":"view"},{"type":"function","name":"submitResult","inputs":[{"name":"questId","type":"uint256","internalType":"uint256"},{"name":"resultURI","type":"string","internalType":"string"}],"outputs":[],"stateMutability":"nonpayable"},{"type":"function","name":"supportsInterface","inputs":[{"name":"interfaceId","type":"bytes4","internalType":"bytes4"}],"outputs":[{"name":"","type":"bool","internalType":"bool"}],"stateMutability":"view"},{"type":"function","name":"symbol","inputs":[],"outputs":[{"name":"","type":"string","internalType":"string"}],"stateMutability":"view"},{"type":"function","name":"tokenURI","inputs":[{"name":"questId","type":"uint256","internalType":"uint256"}],"outputs":[{"name":"","type":"string","internalType":"string"}],"stateMutability":"view"},{"type":"function","name":"totalQuests","inputs":[],"outputs":[{"name":"","type":"uint256","internalType":"uint256"}],"stateMutability":"view"},{"type":"function","name":"totalRevenue","inputs":[],"outputs":[{"name":"","type":"uint256","internalType":"uint256"}],"stateMutability":"view"},{"type":"function","name":"totalVolume","inputs":[],"outputs":[{"name":"","type":"uint256","internalType":"uint256"}],"stateMutability":"view"},{"type":"function","name":"transferFrom","inputs":[{"name":"from","type":"address","internalType":"address"},{"name":"to","type":"address","internalType":"address"},{"name":"tokenId","type":"uint256","internalType":"uint256"}],"outputs":[],"stateMutability":"nonpayable"},{"type":"function","name":"transferOwnership","inputs":[{"name":"newOwner","type":"address","internalType":"address"}],"outputs":[],"stateMutability":"nonpayable"},{"type":"function","name":"treasury","inputs":[],"outputs":[{"name":"","type":"address","internalType":"address"}],"stateMutability":"view"},{"type":"function","name":"unstake","inputs":[{"name":"amount","type":"uint256","internalType":"uint256"}],"outputs":[],"stateMutability":"nonpayable"},{"type":"function","name":"withdrawFees","inputs":[],"outputs":[],"stateMutability":"nonpayable"},{"type":"event","name":"Approval","inputs":[{"name":"owner","type":"address","indexed":true,"internalType":"address"},{"name":"approved","type":"address","indexed":true,"internalType":"address"},{"name":"tokenId","type":"uint256","indexed":true,"internalType":"uint256"}],"anonymous":false},{"type":"event","name":"ApprovalForAll","inputs":[{"name":"owner","type":"address","indexed":true,"internalType":"address"},{"name":"operator","type":"address","indexed":true,"internalType":"address"},{"name":"approved","type":"bool","indexed":false,"internalType":"bool"}],"anonymous":false},{"type":"event","name":"OwnershipTransferred","inputs":[{"name":"previousOwner","type":"address","indexed":true,"internalType":"address"},{"name":"newOwner","type":"address","indexed":true,"internalType":"address"}],"anonymous":false},{"type":"event","name":"QuestCancelled","inputs":[{"name":"questId","type":"uint256","indexed":true,"internalType":"uint256"}],"anonymous":false},{"type":"event","name":"QuestClaimed","inputs":[{"name":"questId","type":"uint256","indexed":true,"internalType":"uint256"},{"name":"claimer","type":"address","indexed":true,"internalType":"address"},{"name":"referrer","type":"address","indexed":true,"internalType":"address"}],"anonymous":false},{"type":"event","name":"QuestCompleted","inputs":[{"name":"questId","type":"uint256","indexed":true,"internalType":"uint256"},{"name":"claimer","type":"address","indexed":true,"internalType":"address"},{"name":"payout","type":"uint256","indexed":false,"internalType":"uint256"},{"name":"platformFee","type":"uint256","indexed":false,"internalType":"uint256"},{"name":"referralFee","type":"uint256","indexed":false,"internalType":"uint256"}],"anonymous":false},{"type":"event","name":"QuestCreated","inputs":[{"name":"questId","type":"uint256","indexed":true,"internalType":"uint256"},{"name":"creator","type":"address","indexed":true,"internalType":"address"},{"name":"bountyAmount","type":"uint256","indexed":false,"internalType":"uint256"},{"name":"title","type":"string","indexed":false,"internalType":"string"}],"anonymous":false},{"type":"event","name":"QuestReclaimed","inputs":[{"name":"questId","type":"uint256","indexed":true,"internalType":"uint256"},{"name":"previousClaimer","type":"address","indexed":true,"internalType":"address"}],"anonymous":false},{"type":"event","name":"QuestRejected","inputs":[{"name":"questId","type":"uint256","indexed":true,"internalType":"uint256"},{"name":"claimer","type":"address","indexed":true,"internalType":"address"},{"name":"reason","type":"string","indexed":false,"internalType":"string"}],"anonymous":false},{"type":"event","name":"ReferralRegistered","inputs":[{"name":"agent","type":"address","indexed":true,"internalType":"address"},{"name":"referrer","type":"address","indexed":true,"internalType":"address"}],"anonymous":false},{"type":"event","name":"ResultSubmitted","inputs":[{"name":"questId","type":"uint256","indexed":true,"internalType":"uint256"},{"name":"claimer","type":"address","indexed":true,"internalType":"address"},{"name":"resultURI","type":"string","indexed":false,"internalType":"string"}],"anonymous":false},{"type":"event","name":"Staked","inputs":[{"name":"user","type":"address","indexed":true,"internalType":"address"},{"name":"amount","type":"uint256","indexed":false,"internalType":"uint256"}],"anonymous":false},{"type":"event","name":"Transfer","inputs":[{"name":"from","type":"address","indexed":true,"internalType":"address"},{"name":"to","type":"address","indexed":true,"internalType":"address"},{"name":"tokenId","type":"uint256","indexed":true,"internalType":"uint256"}],"anonymous":false},{"type":"event","name":"Unstaked","inputs":[{"name":"user","type":"address","indexed":true,"internalType":"address"},{"name":"amount","type":"uint256","indexed":false,"internalType":"uint256"}],"anonymous":false},{"type":"error","name":"ERC721IncorrectOwner","inputs":[{"name":"sender","type":"address","internalType":"address"},{"name":"tokenId","type":"uint256","internalType":"uint256"},{"name":"owner","type":"address","internalType":"address"}]},{"type":"error","name":"ERC721InsufficientApproval","inputs":[{"name":"operator","type":"address","internalType":"address"},{"name":"tokenId","type":"uint256","internalType":"uint256"}]},{"type":"error","name":"ERC721InvalidApprover","inputs":[{"name":"approver","type":"address","internalType":"address"}]},{"type":"error","name":"ERC721InvalidOperator","inputs":[{"name":"operator","type":"address","internalType":"address"}]},{"type":"error","name":"ERC721InvalidOwner","inputs":[{"name":"owner","type":"address","internalType":"address"}]},{"type":"error","name":"ERC721InvalidReceiver","inputs":[{"name":"receiver","type":"address","internalType":"address"}]},{"type":"error","name":"ERC721InvalidSender","inputs":[{"name":"sender","type":"address","internalType":"address"}]},{"type":"error","name":"ERC721NonexistentToken","inputs":[{"name":"tokenId","type":"uint256","internalType":"uint256"}]},{"type":"error","name":"OwnableInvalidOwner","inputs":[{"name":"owner","type":"address","internalType":"address"}]},{"type":"error","name":"OwnableUnauthorizedAccount","inputs":[{"name":"account","type":"address","internalType":"address"}]},{"type":"error","name":"ReentrancyGuardReentrantCall","inputs":[]}],"bytecode":{"object":"0x60a0604052600160075534801562000015575f80fd5b5060405162002b6538038062002b65833981016040819052620000389162000241565b336040518060400160405280600a815260200169436c617751756573747360b01b8152506040518060400160405280600581526020016414555154d560da1b815250815f90816200008a919062000315565b50600162000099828262000315565b5050506001600160a01b038116620000cb57604051631e4fbdf760e01b81525f60048201526024015b60405180910390fd5b620000d681620001d4565b5060017f9b779b17422d0df92223018b32b4d1fa46e071723d6817e2486d003becc55f00556001600160a01b038216620001535760405162461bcd60e51b815260206004820152601460248201527f496e76616c6964205553444320616464726573730000000000000000000000006044820152606401620000c2565b6001600160a01b038116620001ab5760405162461bcd60e51b815260206004820152601860248201527f496e76616c6964207472656173757279206164647265737300000000000000006044820152606401620000c2565b6001600160a01b03918216608052601380546001600160a01b03191691909216179055620003e1565b600680546001600160a01b038381166001600160a01b0319831681179093556040519116919082907f8be0079c531659141344cd1fd0a4f28419497f9722a3daafe3b4186f6b6457e0905f90a35050565b80516001600160a01b03811681146200023c575f80fd5b919050565b5f806040838503121562000253575f80fd5b6200025e8362000225565b91506200026e6020840162000225565b90509250929050565b634e487b7160e01b5f52604160045260245ffd5b600181811c90821680620002a057607f821691505b602082108103620002bf57634e487b7160e01b5f52602260045260245ffd5b50919050565b601f8211156200031057805f5260205f20601f840160051c81016020851015620002ec5750805b601f840160051c820191505b818110156200030d575f8155600101620002f8565b50505b505050565b81516001600160401b0381111562000331576200033162000277565b62000349816200034284546200028b565b84620002c5565b602080601f8311600181146200037f575f8415620003675750858301515b5f19600386901b1c1916600185901b178555620003d9565b5f85815260208120601f198616915b82811015620003af578886015182559484019460019091019084016200038e565b5085821015620003cd57878501515f19600388901b60f8161c191681555b505060018460011b0185555b505050505050565b608051612764620004015f395f818161049b01526107d001526127645ff3fe608060405234801561000f575f80fd5b506004361061028c575f3560e01c806370a0823111610161578063a694fc3a116100ca578063df3225ac11610084578063df3225ac1461056b578063e985e9c514610574578063f0f4426014610587578063f2fde38b1461059a578063f5f5dd41146105ad578063fe90ff7d14610361575f80fd5b8063a694fc3a14610361578063b88d4fde1461050c578063bf2d9e0b1461051f578063c07b528a14610528578063c87b56dd14610547578063dcce46ca1461055a575f80fd5b80638e321c711161011b5780638e321c71146104ce57806393a5bc411461036157806395d89b41146104e15780639a159720146104e9578063a22cb465146104f1578063a3ac707e14610504575f80fd5b806370a082311461045b578063715018a61461046e57806381d6b0d81461047657806389a30271146104965780638c0dd79a146103745780638da5cb5b146104bd575f80fd5b806342842e0e11610203578063539aa77f116101bd578063539aa77f1461041a57806354fcf2e01461042357806356574df0146103615780635f81a57c1461042c57806361d027b3146104355780636352211e14610448575f80fd5b806342842e0e1461039a578063476343ee146103ad57806349a2104d146103b557806349f86f34146103bf5780634a3b68cc146103df5780635328d1df14610407575f80fd5b806316934fc41161025457806316934fc41461032557806323b872dd1461034457806327ed7188146103575780632e17de78146103615780633f9604481461037457806341f66f3914610387575f80fd5b806301ffc9a71461029057806306fdde03146102b8578063081812fc146102cd578063095ea7b3146102f85780631307e5761461030d575b5f80fd5b6102a361029e366004611d5e565b6105b7565b60405190151581526020015b60405180910390f35b6102c0610608565b6040516102af9190611dcd565b6102e06102db366004611ddf565b610697565b6040516001600160a01b0390911681526020016102af565b61030b610306366004611e11565b6106be565b005b610317620f424081565b6040519081526020016102af565b610317610333366004611e39565b600b6020525f908152604090205481565b61030b610352366004611e52565b6106cd565b6103176298968081565b61030b61036f366004611ddf565b61075b565b61030b610382366004611ed0565b505050565b61030b610395366004611f18565b610779565b61030b6103a8366004611e52565b610797565b61030b6107b1565b610317620186a081565b6103d26103cd366004611ddf565b610841565b6040516102af9190611fce565b6102e06103ed366004611e39565b600c6020525f90815260409020546001600160a01b031681565b6103176104153660046120c8565b610bc5565b6103176101f481565b61031760105481565b61031760115481565b6013546102e0906001600160a01b031681565b6102e0610456366004611ddf565b610bf0565b610317610469366004611e39565b610bfa565b61030b610c3f565b610489610484366004611e39565b610c52565b6040516102af919061219a565b6102e07f000000000000000000000000000000000000000000000000000000000000000081565b6006546001600160a01b03166102e0565b6104896104dc366004611e39565b610cbb565b6102c0610d22565b600954610317565b61030b6104ff3660046121dd565b610d31565b610489610d3c565b61030b61051a36600461222a565b610d91565b61031760125481565b610317610536366004611e39565b600d6020525f908152604090205481565b6102c0610555366004611ddf565b610da9565b61030b610568366004611ddf565b50565b6103176107d081565b6102a36105823660046122ff565b6111c4565b61030b610595366004611e39565b6111f1565b61030b6105a8366004611e39565b611264565b6103176201518081565b5f6001600160e01b031982166380ac58cd60e01b14806105e757506001600160e01b03198216635b5e139f60e01b145b8061060257506301ffc9a760e01b6001600160e01b03198316145b92915050565b60605f805461061690612327565b80601f016020809104026020016040519081016040528092919081815260200182805461064290612327565b801561068d5780601f106106645761010080835404028352916020019161068d565b820191905f5260205f20905b81548152906001019060200180831161067057829003601f168201915b5050505050905090565b5f6106a18261129e565b505f828152600460205260409020546001600160a01b0316610602565b6106c98282336112d6565b5050565b6001600160a01b0382166106fb57604051633250574960e11b81525f60048201526024015b60405180910390fd5b5f6107078383336112e3565b9050836001600160a01b0316816001600160a01b031614610755576040516364283d7b60e01b81526001600160a01b03808616600483015260248201849052821660448201526064016106f2565b50505050565b6107636113d5565b61056860015f8051602061270f83398151915255565b6107816113d5565b6106c960015f8051602061270f83398151915255565b61038283838360405180602001604052805f815250610d91565b6107b96113f0565b6040516370a0823160e01b81523060048201525f907f00000000000000000000000000000000000000000000000000000000000000006001600160a01b0316906370a0823190602401602060405180830381865afa15801561081d573d5f803e3d5ffd5b505050506040513d601f19601f820116820180604052508101906106c9919061235f565b610849611cd3565b5f828152600260205260409020546001600160a01b03166108a35760405162461bcd60e51b8152602060048201526014602482015273145d595cdd08191bd95cc81b9bdd08195e1a5cdd60621b60448201526064016106f2565b5f8281526008602090815260409182902082516101608101845281546001600160a01b0390811682526001830154169281019290925260028101805492939192918401916108f090612327565b80601f016020809104026020016040519081016040528092919081815260200182805461091c90612327565b80156109675780601f1061093e57610100808354040283529160200191610967565b820191905f5260205f20905b81548152906001019060200180831161094a57829003601f168201915b5050505050815260200160038201805461098090612327565b80601f01602080910402602001604051908101604052809291908181526020018280546109ac90612327565b80156109f75780601f106109ce576101008083540402835291602001916109f7565b820191905f5260205f20905b8154815290600101906020018083116109da57829003601f168201915b50505050508152602001600482018054610a1090612327565b80601f0160208091040260200160405190810160405280929190818152602001828054610a3c90612327565b8015610a875780601f10610a5e57610100808354040283529160200191610a87565b820191905f5260205f20905b815481529060010190602001808311610a6a57829003601f168201915b505050918352505060058201546020820152600682015460408201526007820154606082015260088201546080820152600982015460a09091019060ff166004811115610ad657610ad6611f42565b6004811115610ae757610ae7611f42565b8152602001600a8201805480602002602001604051908101604052809291908181526020015f905b82821015610bb7578382905f5260205f20018054610b2c90612327565b80601f0160208091040260200160405190810160405280929190818152602001828054610b5890612327565b8015610ba35780601f10610b7a57610100808354040283529160200191610ba3565b820191905f5260205f20905b815481529060010190602001808311610b8657829003601f168201915b505050505081526020019060010190610b0f565b505050915250909392505050565b5f610bce6113d5565b610be460015f8051602061270f83398151915255565b98975050505050505050565b5f6106028261129e565b5f6001600160a01b038216610c24576040516322718ad960e21b81525f60048201526024016106f2565b506001600160a01b03165f9081526003602052604090205490565b610c476113f0565b610c505f61141d565b565b6001600160a01b0381165f908152600e6020908152604091829020805483518184028101840190945280845260609392830182828015610caf57602002820191905f5260205f20905b815481526020019060010190808311610c9b575b50505050509050919050565b6001600160a01b0381165f908152600f6020908152604091829020805483518184028101840190945280845260609392830182828015610caf57602002820191905f5260205f2090815481526020019060010190808311610c9b5750505050509050919050565b60606001805461061690612327565b6106c933838361146e565b6060600980548060200260200160405190810160405280929190818152602001828054801561068d57602002820191905f5260205f20905b815481526020019060010190808311610d74575050505050905090565b610d9c8484846106cd565b6107553385858585611535565b5f818152600260205260409020546060906001600160a01b0316610e065760405162461bcd60e51b8152602060048201526014602482015273145d595cdd08191bd95cc81b9bdd08195e1a5cdd60621b60448201526064016106f2565b5f82815260086020908152604080832081516101608101835281546001600160a01b039081168252600183015416938101939093526002810180549192840191610e4f90612327565b80601f0160208091040260200160405190810160405280929190818152602001828054610e7b90612327565b8015610ec65780601f10610e9d57610100808354040283529160200191610ec6565b820191905f5260205f20905b815481529060010190602001808311610ea957829003601f168201915b50505050508152602001600382018054610edf90612327565b80601f0160208091040260200160405190810160405280929190818152602001828054610f0b90612327565b8015610f565780601f10610f2d57610100808354040283529160200191610f56565b820191905f5260205f20905b815481529060010190602001808311610f3957829003601f168201915b50505050508152602001600482018054610f6f90612327565b80601f0160208091040260200160405190810160405280929190818152602001828054610f9b90612327565b8015610fe65780601f10610fbd57610100808354040283529160200191610fe6565b820191905f5260205f20905b815481529060010190602001808311610fc957829003601f168201915b505050918352505060058201546020820152600682015460408201526007820154606082015260088201546080820152600982015460a09091019060ff16600481111561103557611035611f42565b600481111561104657611046611f42565b8152602001600a8201805480602002602001604051908101604052809291908181526020015f905b82821015611116578382905f5260205f2001805461108b90612327565b80601f01602080910402602001604051908101604052809291908181526020018280546110b790612327565b80156111025780601f106110d957610100808354040283529160200191611102565b820191905f5260205f20905b8154815290600101906020018083116110e557829003601f168201915b50505050508152602001906001019061106e565b505050508152505090505f61112a8261165d565b90505f6111368561168a565b83606001516111448461171a565b61115f620f42408760a0015161115a919061238a565b61168a565b61116d876101200151611726565b6040516020016111819594939291906123c4565b604051602081830303815290604052905061119b8161171a565b6040516020016111ab919061252f565b6040516020818303038152906040529350505050919050565b6001600160a01b039182165f90815260056020908152604080832093909416825291909152205460ff1690565b6111f96113f0565b6001600160a01b0381166112425760405162461bcd60e51b815260206004820152601060248201526f496e76616c696420747265617375727960801b60448201526064016106f2565b601380546001600160a01b0319166001600160a01b0392909216919091179055565b61126c6113f0565b6001600160a01b03811661129557604051631e4fbdf760e01b81525f60048201526024016106f2565b6105688161141d565b5f818152600260205260408120546001600160a01b03168061060257604051637e27328960e01b8152600481018490526024016106f2565b6103828383836001611882565b5f828152600260205260408120546001600160a01b039081169083161561130f5761130f818486611986565b6001600160a01b038116156113495761132a5f855f80611882565b6001600160a01b0381165f90815260036020526040902080545f190190555b6001600160a01b03851615611377576001600160a01b0385165f908152600360205260409020805460010190555b5f8481526002602052604080822080546001600160a01b0319166001600160a01b0389811691821790925591518793918516917fddf252ad1be2c89b69c2b068fc378daa952ba7f163c4a11628f55a4df523b3ef91a4949350505050565b6113dd6119ea565b60025f8051602061270f83398151915255565b6006546001600160a01b03163314610c505760405163118cdaa760e01b81523360048201526024016106f2565b600680546001600160a01b038381166001600160a01b0319831681179093556040519116919082907f8be0079c531659141344cd1fd0a4f28419497f9722a3daafe3b4186f6b6457e0905f90a35050565b6001600160a01b0383166114975760405163a9fbf51f60e01b81525f60048201526024016106f2565b6001600160a01b0382166114c957604051630b61174360e31b81526001600160a01b03831660048201526024016106f2565b6001600160a01b038381165f81815260056020908152604080832094871680845294825291829020805460ff191686151590811790915591519182527f17307eab39ab6107e8899845ad3d59bd9653f200f220920489ca2b5937696c31910160405180910390a3505050565b6001600160a01b0383163b1561165657604051630a85bd0160e11b81526001600160a01b0384169063150b7a0290611577908890889087908790600401612573565b6020604051808303815f875af19250505080156115b1575060408051601f3d908101601f191682019092526115ae918101906125a5565b60015b611618573d8080156115de576040519150601f19603f3d011682016040523d82523d5f602084013e6115e3565b606091505b5080515f0361161057604051633250574960e11b81526001600160a01b03851660048201526024016106f2565b805160208201fd5b6001600160e01b03198116630a85bd0160e11b1461165457604051633250574960e11b81526001600160a01b03851660048201526024016106f2565b505b5050505050565b6060816040015160405160200161167491906125c0565b6040516020818303038152906040529050919050565b60605f61169683611a19565b60010190505f8167ffffffffffffffff8111156116b5576116b5612216565b6040519080825280601f01601f1916602001820160405280156116df576020820181803683370190505b5090508181016020015b5f19016f181899199a1a9b1b9c1cb0b131b232b360811b600a86061a8153600a85049450846116e957509392505050565b6060610602825f611af0565b60605f82600481111561173b5761173b611f42565b0361176057505060408051808201909152600481526327b832b760e11b602082015290565b600182600481111561177457611774611f42565b036117a057505060408051808201909152600b81526a496e2050726f677265737360a81b602082015290565b60028260048111156117b4576117b4611f42565b036117e357505060408051808201909152600e81526d50656e64696e672052657669657760901b602082015290565b60038260048111156117f7576117f7611f42565b0361182157505060408051808201909152600981526810dbdb5c1b195d195960ba1b602082015290565b600482600481111561183557611835611f42565b0361185f57505060408051808201909152600981526810d85b98d95b1b195960ba1b602082015290565b50506040805180820190915260078152662ab735b737bbb760c91b602082015290565b808061189657506001600160a01b03821615155b15611957575f6118a58461129e565b90506001600160a01b038316158015906118d15750826001600160a01b0316816001600160a01b031614155b80156118e457506118e281846111c4565b155b1561190d5760405163a9fbf51f60e01b81526001600160a01b03841660048201526024016106f2565b81156119555783856001600160a01b0316826001600160a01b03167f8c5be1e5ebec7d5bd14f71427d1e84f3dd0314c0f7b2291e5b200ac8c7c3b92560405160405180910390a45b505b50505f90815260046020526040902080546001600160a01b0319166001600160a01b0392909216919091179055565b611991838383611c6f565b610382576001600160a01b0383166119bf57604051637e27328960e01b8152600481018290526024016106f2565b60405163177e802f60e01b81526001600160a01b0383166004820152602481018290526044016106f2565b5f8051602061270f83398151915254600203610c5057604051633ee5aeb560e01b815260040160405180910390fd5b5f8072184f03e93ff9f4daa797ed6e38ed64bf6a1f0160401b8310611a575772184f03e93ff9f4daa797ed6e38ed64bf6a1f0160401b830492506040015b6d04ee2d6d415b85acef81000000008310611a83576d04ee2d6d415b85acef8100000000830492506020015b662386f26fc100008310611aa157662386f26fc10000830492506010015b6305f5e1008310611ab9576305f5e100830492506008015b6127108310611acd57612710830492506004015b60648310611adf576064830492506002015b600a83106106025760010192915050565b606082515f03611b0e575060408051602081019091525f8152610602565b5f82611b3e57600384516002611b2491906126e4565b611b2e919061238a565b611b399060046126f7565b611b63565b600384516004611b4e91906126f7565b611b599060026126e4565b611b63919061238a565b905060405191507f4142434445464748494a4b4c4d4e4f505152535455565758595a616263646566601f5261067083027f6768696a6b6c6d6e6f707172737475767778797a303132333435363738392b2f18603f526020820181810185865187016020810180515f82525b82841015611c21576003840193508351603f8160121c16518753600187019650603f81600c1c16518753600187019650603f8160061c16518753600187019650603f811651875350600186019550611bce565b905250859050611c6257600386510660018114611c455760028114611c5857611c60565b603d6001840353603d6002840353611c60565b603d60018403535b505b9183525060405292915050565b5f6001600160a01b03831615801590611ccb5750826001600160a01b0316846001600160a01b03161480611ca85750611ca884846111c4565b80611ccb57505f828152600460205260409020546001600160a01b038481169116145b949350505050565b6040518061016001604052805f6001600160a01b031681526020015f6001600160a01b031681526020016060815260200160608152602001606081526020015f81526020015f81526020015f81526020015f81526020015f6004811115611d3c57611d3c611f42565b8152602001606081525090565b6001600160e01b031981168114610568575f80fd5b5f60208284031215611d6e575f80fd5b8135611d7981611d49565b9392505050565b5f5b83811015611d9a578181015183820152602001611d82565b50505f910152565b5f8151808452611db9816020860160208601611d80565b601f01601f19169290920160200192915050565b602081525f611d796020830184611da2565b5f60208284031215611def575f80fd5b5035919050565b80356001600160a01b0381168114611e0c575f80fd5b919050565b5f8060408385031215611e22575f80fd5b611e2b83611df6565b946020939093013593505050565b5f60208284031215611e49575f80fd5b611d7982611df6565b5f805f60608486031215611e64575f80fd5b611e6d84611df6565b9250611e7b60208501611df6565b9150604084013590509250925092565b5f8083601f840112611e9b575f80fd5b50813567ffffffffffffffff811115611eb2575f80fd5b602083019150836020828501011115611ec9575f80fd5b9250929050565b5f805f60408486031215611ee2575f80fd5b83359250602084013567ffffffffffffffff811115611eff575f80fd5b611f0b86828701611e8b565b9497909650939450505050565b5f8060408385031215611f29575f80fd5b82359150611f3960208401611df6565b90509250929050565b634e487b7160e01b5f52602160045260245ffd5b60058110611f7257634e487b7160e01b5f52602160045260245ffd5b9052565b5f8282518085526020808601955060208260051b840101602086015f5b84811015611fc157601f19868403018952611faf838351611da2565b98840198925090830190600101611f93565b5090979650505050505050565b60208152611fe86020820183516001600160a01b03169052565b5f602083015161200360408401826001600160a01b03169052565b506040830151610160806060850152612020610180850183611da2565b91506060850151601f198086850301608087015261203e8483611da2565b935060808701519150808685030160a087015261205b8483611da2565b935060a087015160c087015260c087015160e087015260e087015191506101008281880152808801519250506101208281880152808801519250506101406120a581880184611f56565b8701518685039091018387015290506120be8382611f76565b9695505050505050565b5f805f805f805f8060a0898b0312156120df575f80fd5b883567ffffffffffffffff808211156120f6575f80fd5b6121028c838d01611e8b565b909a50985060208b013591508082111561211a575f80fd5b6121268c838d01611e8b565b909850965060408b0135955060608b0135915080821115612145575f80fd5b818b0191508b601f830112612158575f80fd5b813581811115612166575f80fd5b8c60208260051b850101111561217a575f80fd5b602083019550809450505050608089013590509295985092959890939650565b602080825282518282018190525f9190848201906040850190845b818110156121d1578351835292840192918401916001016121b5565b50909695505050505050565b5f80604083850312156121ee575f80fd5b6121f783611df6565b91506020830135801515811461220b575f80fd5b809150509250929050565b634e487b7160e01b5f52604160045260245ffd5b5f805f806080858703121561223d575f80fd5b61224685611df6565b935061225460208601611df6565b925060408501359150606085013567ffffffffffffffff80821115612277575f80fd5b818701915087601f83011261228a575f80fd5b81358181111561229c5761229c612216565b604051601f8201601f19908116603f011681019083821181831017156122c4576122c4612216565b816040528281528a60208487010111156122dc575f80fd5b826020860160208301375f60208483010152809550505050505092959194509250565b5f8060408385031215612310575f80fd5b61231983611df6565b9150611f3960208401611df6565b600181811c9082168061233b57607f821691505b60208210810361235957634e487b7160e01b5f52602260045260245ffd5b50919050565b5f6020828403121561236f575f80fd5b5051919050565b634e487b7160e01b5f52601160045260245ffd5b5f826123a457634e487b7160e01b5f52601260045260245ffd5b500490565b5f81516123ba818560208601611d80565b9290920192915050565b737b226e616d65223a22436c61775175657374202360601b815285515f906123f3816014850160208b01611d80565b701116113232b9b1b934b83a34b7b7111d1160791b6014918401918201528651612424816025840160208b01611d80565b7f222c22696d616765223a22646174613a696d6167652f7376672b786d6c3b626160259290910191820152641cd94d8d0b60da1b6045820152855161247081604a840160208a01611d80565b6f222c2261747472696275746573223a5b60801b604a92909101918201527f7b2274726169745f74797065223a22426f756e7479222c2276616c7565223a22605a820152610be461252161251361250d6124e46124d0607a87018b6123a9565b67081554d110c89f4b60c21b815260080190565b7f7b2274726169745f74797065223a22537461747573222c2276616c7565223a22815260200190565b876123a9565b61227d60f01b815260020190565b615d7d60f01b815260020190565b7f646174613a6170706c69636174696f6e2f6a736f6e3b6261736536342c00000081525f825161256681601d850160208701611d80565b91909101601d0192915050565b6001600160a01b03858116825284166020820152604081018390526080606082018190525f906120be90830184611da2565b5f602082840312156125b5575f80fd5b8151611d7981611d49565b7f3c73766720786d6c6e733d22687474703a2f2f7777772e77332e6f72672f323081527f30302f737667222076696577426f783d223020302034303020343030223e000060208201527f3c726563742077696474683d2234303022206865696768743d22343030222066603e8201526e34b6361e911198181a99232311179f60891b605e8201527f3c7465787420783d223230302220793d223230302220746578742d616e63686f606d8201527f723d226d6964646c65222066696c6c3d2277686974652220666f6e742d73697a608d82015266329e91191a111f60c91b60ad8201525f82516126b78160b4850160208701611d80565b661e17ba32bc3a1f60c91b60b4939091019283015250651e17b9bb339f60d11b60bb82015260c101919050565b8082018082111561060257610602612376565b80820281158282048414176106025761060261237656fe9b779b17422d0df92223018b32b4d1fa46e071723d6817e2486d003becc55f00a26469706673582212205a1c4f90049425ce7fae03451f5e794a7a54e51f55c128e939179b80ab9b608064736f6c63430008180033","linkReferences":{}},"methodIdentifiers":{"CLAIM_TIMEOUT()":"f5f5dd41","CREATION_FEE()":"49a2104d","MIN_BOUNTY()":"1307e576","MIN_STAKE_AMOUNT()":"27ed7188","PLATFORM_FEE_BPS()":"539aa77f","REFERRAL_SHARE_BPS()":"df3225ac","USDC()":"89a30271","approve(address,uint256)":"095ea7b3","approveCompletion(uint256)":"93a5bc41","balanceOf(address)":"70a08231","cancelQuest(uint256)":"fe90ff7d","claimQuest(uint256)":"56574df0","claimQuestWithReferral(uint256,address)":"41f66f39","createQuest(string,string,uint256,string[],uint256)":"5328d1df","getApproved(uint256)":"081812fc","getOpenQuests()":"a3ac707e","getQuest(uint256)":"49f86f34","getQuestsByClaimer(address)":"8e321c71","getQuestsByCreator(address)":"81d6b0d8","isApprovedForAll(address,address)":"e985e9c5","name()":"06fdde03","openQuestCount()":"9a159720","owner()":"8da5cb5b","ownerOf(uint256)":"6352211e","reclaimQuest(uint256)":"dcce46ca","referralEarnings(address)":"c07b528a","referrers(address)":"4a3b68cc","rejectCompletion(uint256,string)":"3f960448","renounceOwnership()":"715018a6","safeTransferFrom(address,address,uint256)":"42842e0e","safeTransferFrom(address,address,uint256,bytes)":"b88d4fde","setApprovalForAll(address,bool)":"a22cb465","setTreasury(address)":"f0f44260","stake(uint256)":"a694fc3a","stakes(address)":"16934fc4","submitResult(uint256,string)":"8c0dd79a","supportsInterface(bytes4)":"01ffc9a7","symbol()":"95d89b41","tokenURI(uint256)":"c87b56dd","totalQuests()":"54fcf2e0","totalRevenue()":"bf2d9e0b","totalVolume()":"5f81a57c","transferFrom(address,address,uint256)":"23b872dd","transferOwnership(address)":"f2fde38b","treasury()":"61d027b3","unstake(uint256)":"2e17de78","withdrawFees()":"476343ee"},"id":43}